:100000000C9451000C946E000C946E000C946E00D5
:100010000C946E000C946E000C946E000C946E00A8
:100020000C946E000C946E000C946E000C946E0098
:100030000C946E000C946E000C946E000C946E0088
:100040000C946E000C946E000C946E000C946E0078
:100050000C946E002534640048656C6C6F205E5F04
:100060005E00001F000000001F00001F1010101095
:100070001F00001F181818181F00001F1C1C1C1C34
:100080001F00001F1E1E1E1E1F00001F1F1F1F1F00
:100090001F0003070F1F0F070300181C1E1F1E1C45
:1000A000180011241FBECFE5D8E0DEBFCDBF10E0A1
:1000B000A0E6B0E0E2E2FDE002C005900D92A437B8
:1000C000B107D9F720E0A4E7B0E001C01D92A8373E
:1000D000B207E1F70E9470000C948F060C940000A8
:1000E00047E060E081E00E94D8006C010E94950129
:1000F00040E060E088E590E00E94D7010F2EF4E533
:10010000EF2EF0E0FF2EF02D0F2EF9E0BF2EF02D98
:1001100011E0D6011296ED91FC91139780E00995BC
:10012000EC01DF938F93FF92EF921F92BF921F9388
:100130000E945202AE01569547955695479500E1AB
:100140002FEF612F80E00E94F501ADB7BEB7179683
:100150000FB6F894BEBF0FBEADBFDBCF27B130E402
:10016000839FC00111242F73822B87B987B1807EB2
:1001700087B987B190E2699FB00111248F7D682B08
:1001800067B986B1887F482B46B9369A379A089561
:1001900097B1907E892B87B9369A349BFECF349ADB
:1001A0003D9B03C085B190E0089584B195B1089559
:1001B000FF920F931F93CF93DF93182F062FF42EE8
:1001C00084E090E00E94AA02EC01009769F02EEA18
:1001D00030E03983288328EC30E03B832A834F2D9D
:1001E000602F812F0E94AE00CE01DF91CF911F9131
:1001F0000F91FF900895C29A84E08A95F1F7C29812
:1002000008958FE087BB88B38A7F88BB88B3826FED
:1002100088BB84E08A95F1F7C29A94E09A95F1F749
:1002200086B3C29894E09A95F1F7C29A94E09A95B1
:10023000F1F7C29894E09A95F1F788236CF318BA15
:100240008FEF87BB0895CF93C82F0E9401018C2F99
:10025000807F88BB0E94FB0020E1C29FC001112467
:1002600088BB0E94FB00CF910895CF93C82F0E94B6
:1002700001018C2F807F816088BB0E94FB0020E100
:10028000C29FC0011124816088BB0E94FB00CF91F6
:1002900008950E94350180E090E00895623031F0C9
:1002A000633031F0613029F4805C03C08C5E01C0A2
:1002B0008C5A80680E9423010895EF92FF920F9359
:1002C0001F93CF93DF938C01660F660F660F6064F8
:1002D000E62EC0E0D0E0F801EC0FFD1FF4908C2F6B
:1002E0008E0D0E9423018F2D0E9435012196C8306A
:1002F000D10589F7DF91CF911F910F91FF90EF907A
:1003000008951F93CF93DF93C2E6D0E060E011E041
:10031000160FCE010E945D012896163011F0612F54
:10032000F6CFDF91CF911F9108952FEF8FEA91E0E3
:10033000215080409040E1F700C000008FEF87BB64
:1003400080E388BB0E94FB008FEF9BE60197F1F7EB
:1003500000C0000080E388BB0E94FB008FEF95E3A4
:100360000197F1F700C0000080E388BB0E94FB000A
:100370008FEF95E30197F1F700C0000080E288BBA2
:100380000E94FB008FEF95E30197F1F700C000009A
:1003900088E20E9423018CE00E94230186E00E94F3
:1003A000230180E80E9423010E94810108951F9388
:1003B000CF93DF93EC01862F642F0E944E019E01A4
:1003C000FE018491882369F010E0F90184910E9474
:1003D00035011F5F9E01210F311DF90184918111AB
:1003E000F4CFDF91CF911F910895BF92CF92DF920A
:1003F000EF92FF920F931F93CF93DF93D42FC22FCF
:100400000E944E01802F90E0FC01EE0FFF1F8E0F27
:100410009F1FFC01EE0FFF1FDE9FC001DF9F900DAD
:1004200011246C2F70E00E947302E62FE62EF72E47
:10043000002371F1262F372FABEABAEA0E94870218
:100440009695879596958795AC01440F551F840F17
:10045000951F880F991FC0E0D0E010E00F2EF5E047
:10046000DF2EF02DBE2EB81AC12CCE010596E8164F
:10047000F90628F4EC16FD0620F48C2D03C08D2D12
:1004800001C08B2D0E9435011F5F26961013EDCF02
:10049000DF91CF911F910F91FF90EF90DF90CF9060
:1004A000BF900895CF93DF93CDB7DEB76F818E8174
:1004B0000E944E018D81882351F0AE01465F5F4F4F
:1004C0006885798586E690E00E94D10309C0AE0177
:1004D000465F5F4F6885798586E690E00E94E0037D
:1004E000DF91CF91089597FB072E16F4009407D063
:1004F00077FD09D00E94960207FC05D03EF4909546
:1005000081959F4F0895709561957F4F0895A29FA3
:10051000B001B39FC001A39F700D811D1124911DD7
:10052000B29F700D811D1124911D0895AA1BBB1B44
:1005300051E107C0AA1FBB1FA617B70710F0A61BE3
:10054000B70B881F991F5A95A9F780959095BC0104
:10055000CD010895CF93DF938230910510F482E0AE
:1005600090E0E0917600F091770020E030E0A0E0AC
:10057000B0E0309739F14081518148175907B8F000
:100580004817590771F482819381109729F01396C7
:100590009C938E9312972CC0909377008093760053
:1005A00027C02115310531F04217530718F0A90172
:1005B000DB0101C0EF019A01BD01DF010280F3817F
:1005C000E02DD7CF21153105F9F0281B390B243048
:1005D000310580F48A819B816115710521F0FB0151
:1005E0009383828304C09093770080937600FE010A
:1005F000329644C0FE01E20FF31F81939193225083
:100600003109398328833AC02091740030917500F4
:10061000232B41F4209162003091630030937500E8
:100620002093740020916000309161002115310504
:1006300041F42DB73EB74091640050916500241BF2
:10064000350BE0917400F0917500E217F307A0F408
:100650002E1B3F0B2817390778F0AC014E5F5F4F18
:100660002417350748F04E0F5F1F509375004093D5
:1006700074008193919302C0E0E0F0E0CF01DF913C
:10068000CF910895CF93DF93009709F487C0FC01C1
:10069000329713821282C0917600D0917700209712
:1006A00081F420813181280F391F8091740090914D
:1006B00075008217930779F5F0937500E093740045
:1006C0006DC0DE0120E030E0AE17BF0750F4129697
:1006D0004D915C9113979D014115510509F1DA0186
:1006E000F3CFB383A28340815181840F951F8A1772
:1006F0009B0771F48D919C911197840F951F029621
:100700009183808312968D919C911397938382831A
:100710002115310529F4F0937700E09376003EC06F
:10072000D9011396FC93EE9312974D915D91A40F0E
:10073000B51FEA17FB0779F480819181840F951F1B
:100740000296D90111969C938E9382819381139680
:100750009C938E931297E0E0F0E08A819B81009752
:1007600019F0FE01EC01F9CFCE0102962881398102
:10077000820F931F2091740030917500281739075C
:1007800069F4309729F4109277001092760002C035
:1007900013821282D0937500C0937400DF91CF91C1
:1007A0000895CF93DF93EC018B8188608B83CE011A
:1007B0000E94E0032B81277F2B83DF91CF91089547
:1007C000ACE0B0E0E6EEF3E00C9458067C016B017F
:1007D0008A01FC0117821682838181FFBDC1CE018F
:1007E00001964C01F7019381F60193FD859193FFEA
:1007F00081916F01882309F4ABC1853239F493FDEF
:10080000859193FF81916F01853229F4B70190E0C2
:100810000E94C805E7CF512C312C20E02032A0F4F3
:100820008B3269F030F4803259F0833269F4206100
:100830002CC08D3239F0803339F4216026C022601B
:10084000246023C0286021C027FD27C030ED380F69
:100850003A3078F426FF06C0FAE05F9E300D11248E
:10086000532E13C08AE0389E300D1124332E20629F
:100870000CC08E3221F426FD6BC1206406C08C367C
:1008800011F4206802C0883641F4F60193FD859189
:1008900093FF81916F018111C1CF982F9F7D955456
:1008A000933028F40C5F1F4FFFE3F9830DC08336AC
:1008B00031F0833771F0833509F05BC022C0F80155
:1008C000808189830E5F1F4F44244394512C54012F
:1008D00015C03801F2E06F0E711CF801A080B180E4
:1008E00026FF03C0652D70E002C06FEF7FEFC501EA
:1008F0002C870E94BD052C0183012C852F77222E89
:1009000017C03801F2E06F0E711CF801A080B180B1
:1009100026FF03C0652D70E002C06FEF7FEFC501B9
:100920002C870E94B2052C012C852068222E830181
:1009300023FC1BC0832D90E048165906B0F4B70184
:1009400080E290E00E94C8053A94F4CFF50127FCBC
:10095000859127FE81915F01B70190E00E94C80553
:1009600031103A94F1E04F1A51084114510471F7D3
:10097000E5C0843611F0893639F5F80127FF07C044
:1009800060817181828193810C5F1F4F08C06081FB
:100990007181882777FD8095982F0E5F1F4F2F76E6
:1009A000B22E97FF09C090958095709561957F4F05
:1009B0008F4F9F4F2068B22E2AE030E0A4010E94A2
:1009C000FA05A82EA81844C0853729F42F7EB22E28
:1009D0002AE030E025C0F22FF97FBF2E8F36C1F01C
:1009E00018F4883579F0B4C0803719F0883721F0D1
:1009F000AFC02F2F2061B22EB4FE0DC08B2D8460AE
:100A0000B82E09C024FF0AC09F2F9660B92E06C0D9
:100A100028E030E005C020E130E002C020E132E013
:100A2000F801B7FE07C060817181828193810C5FFC
:100A30001F4F06C06081718180E090E00E5F1F4F04
:100A4000A4010E94FA05A82EA818FB2DFF77BF2E3F
:100A5000B6FE0BC02B2D2E7FA51450F4B4FE0AC099
:100A6000B2FC08C02B2D2E7E05C07A2C2B2D03C086
:100A70007A2C01C0752C24FF0DC0FE01EA0DF11D7A
:100A80008081803311F4297E09C022FF06C073944F
:100A9000739404C0822F867809F0739423FD13C0E9
:100AA00020FF06C05A2C731418F4530C5718732CDB
:100AB000731468F4B70180E290E02C870E94C805A7
:100AC00073942C85F5CF731410F4371801C0312CB2
:100AD00024FF12C0B70180E390E02C870E94C80574
:100AE0002C8522FF17C021FF03C088E590E002C0DB
:100AF00088E790E0B7010CC0822F867859F021FD7D
:100B000002C080E201C08BE227FD8DE2B70190E0D8
:100B10000E94C805A51438F4B70180E390E00E9454
:100B2000C8055A94F7CFAA94F401EA0DF11D80810B
:100B3000B70190E00E94C805A110F5CF332009F459
:100B400051CEB70180E290E00E94C8053A94F6CFFA
:100B5000F7018681978102C08FEF9FEF2C96E2E12B
:100B60000C947406FC010590615070400110D8F798
:100B7000809590958E0F9F1F0895FC0161507040E5
:100B800001900110D8F7809590958E0F9F1F0895C2
:100B90000F931F93CF93DF93182F092FEB018B81B6
:100BA00081FD03C08FEF9FEF20C082FF10C04E81F8
:100BB0005F812C813D81421753077CF4E881F981E4
:100BC0009F012F5F3F4F39832883108306C0E8853C
:100BD000F985812F0995892B29F72E813F812F5F78
:100BE0003F4F3F832E83812F902FDF91CF911F9115
:100BF0000F910895FA01AA27283051F1203181F18F
:100C0000E8946F936E7F6E5F7F4F8F4F9F4FAF4F14
:100C1000B1E03ED0B4E03CD0670F781F891F9A1F27
:100C2000A11D680F791F8A1F911DA11D6A0F711DDB
:100C3000811D911DA11D20D009F468943F912AE0E7
:100C4000269F11243019305D3193DEF6CF010895CF
:100C5000462F4770405D4193B3E00FD0C9F7F6CF00
:100C6000462F4F70405D4A3318F0495D31FD4052C8
:100C7000419302D0A9F7EACFB4E0A695979587955E
:100C800077956795BA95C9F700976105710508953D
:100C90009B01AC010A2E06945795479537952795E9
:100CA000BA95C9F7620F731F841F951FA01D089581
:100CB0002F923F924F925F926F927F928F929F926C
:100CC000AF92BF92CF92DF92EF92FF920F931F935A
:100CD000CF93DF93CDB7DEB7CA1BDB0B0FB6F8940B
:100CE000DEBF0FBECDBF09942A88398848885F844B
:100CF0006E847D848C849B84AA84B984C884DF80BC
:100D0000EE80FD800C811B81AA81B981CE0FD11D9F
:100D10000FB6F894DEBF0FBECDBFED010895F89475
:020D2000FFCF03
:100D220000007800200000000002000000004901DD
:040D320000000000BD
:00000001FF
