:080000000C9470000C94000048
:100008000C9400000C9400000C9400000C94000068
:100018000C9400000C9400000C9400000C94000058
:100028000C9400000C9400000C9400000C94000048
:100038000C9400000C9400000C9400000C94000038
:100048000C9400000C9400000C9400004E4F2052B9
:1000580045414445520A00524335323220544553F3
:10006800540A0052433532322044455445435445DE
:10007800440A00252E3258252E3258252E3258256E
:100088002E3258252E325820252E34580A007365F2
:100098006C656374203D20252E32580A006C6F670A
:1000A800696E203D2025640A0072656164203D2048
:1000B80025642020252E325820252E325820252E22
:1000C80032580A00FFFFFFFFFFFFFFFFFFFFFFFFA0
:1000D80006006002CC000000F894EE27ECBBF1E0CB
:1000E800FBBFEBBFE5BFF8E1F1BDE1BD8DE0A2E0EC
:1000F800BB27ED938A95E9F780E098E0A0E6ED93B9
:100108000197E9F7E8EDF0E085919591009761F0A6
:10011800A591B59105901590BF01F00105900D923C
:100128000197E1F7FB01F0CFEFE5EDBFE8E0EEBFA7
:10013800C0E6D2E00C94E300E0E0EBB9E8E1EAB90C
:10014800E6E8E0BDE0E0E0BDEDE4E9B908951A9322
:100158000E9463031E2F103910F0133928F0E4E5CC
:10016800F0E00E946606FFCF0C949A010E946D068B
:100178000A9300E00E947206AA89BB890E9466035E
:10018800E030B9F0DE0112960E94BF021E2F113036
:1001980071F4EC89FD89FA93EA93FE013496FA9397
:1001A800EA93A5E0B0E00E943B0601E001C000E050
:1001B80001C000E0E02F19810881669608956597CF
:1001C800A8EEB3E00E940207B7DFEFE5F0E00E9477
:1001D80066067AD00E947501BADFEBE6F0E00E946D
:1001E8006606FE017096FA93EA93ADB7BEB711970B
:1001F8001F930F93BBDF0F911F91E03011F40C9404
:100208006001EBE7F0E0FA93EA93EA890E94790645
:10021800EF890E947906EC8D0E947906E9A10E9477
:100228007906EEA10E947906F801662777270E94D1
:100238007A0788E10E9416066A96E6E9F0E0FA93E2
:10024800EA93DE0152960E94F1030E94790684E047
:100258000E9416062696E5EAF0E0FA93EA93E0E6AD
:10026800EA93E4E0EA93E0E6F2E0FA93EA93DE0147
:1002780056960E9481030E94790684E00E94160621
:100288002696E4E0EA93DE0111960E94C1033E2F10
:10029800E1EBF0E0FA93EA93E32F0E947906EE810E
:1002A8000E947906EB850E947906E8890E94790602
:1002B80080E10E94160662960E943C03A4E6B0E024
:1002C8000E9402078ECFFFCFE0EBE7BBE1E5EDB977
:1002D8000895AA93E881EFB9779BFECFEFB10C940C
:1002E80042041A9341D0EAE2EA93ADE821D0EBE266
:1002F800EA93AEE31DD0ECE2EA93AEE119D0EDE269
:100308000E947F06E5E1EA93A0E412D0E1E1EA93D6
:10031800ADE30ED0A4E117D01E2FE12FE37031F426
:10032800E4E1EA93E12FE360AE2F02D0199108953A
:10033800AA93C498E981EE0FEE77AE2FCADFA881A1
:10034800C8DFC49A0FC0AA931A93C498E981EE0F24
:10035800EE77E068AE2FBDDFA0E0BBDF1E2FC49AAA
:10036800E12F188122960895E1E0EA93AFE0E0DFFB
:100378000895BA93AA9324971A93EDE0EA93A7E015
:10038800D7DFEF81AD81BE81EC930E948306E1E067
:100398000E948A060E94900661F4A981BA818B8125
:1003A8009C81A031E0E0BE07E0E08E07E0E09E0718
:1003B80009F013E00EC2BA93AA9324970E948E07FD
:1003C80013E000E030E0E989F0E0EE30A0E0FA0761
:1003D80019F402E130E106C0EC30A0E0FA0711F4AC
:1003E80007E730E3A4E0AFDF5E2FE4E0EA93E52F10
:1003F800EF77AE2F9DDFAAE0A6DF5E2FEAE00E942E
:100408009706E1E00E947F06E0E0EE83EF83E8874D
:10041800E987EE850E949D06FF27662777270E94B9
:10042800890778F4E9E0EA93EF81F885A889B98922
:10043800AE0FBF1FAC917CDF0E94A2060E94A706E8
:10044800E8CFE1E0EA93AA8973DFA989AC3031F4F7
:10045800ADE079DF5E2FEDE00E949706E0EDF7E072
:1004680060E070E0EE83FF8368877987A4E06BDF44
:100478005E2F0E94A206319760407040EE83FF8392
:10048800688779870E949D060E94830729F050FD9E
:1004980003C0E32FE52309F001C0E8CFADE053DF47
:1004A8004E2FEDE0EA93E42FEF77AE2F41DF0E9465
:1004B800A2060E947F0711F40C94BA02A6E043DF5B
:1004C800EB7111F00C94B90211E0E02FE523E17013
:1004D80009F012E0A989AC3011F00C94B802AAE036
:1004E80032DF5E2FACE02FDFE7702E2F203071F067
:1004F800E52FF0E031970E94B006DF01CB01E22F33
:10050800F0E00E941D070E94100704C0E52FF0E0EC
:100518000E94B006AA85BB850E947507503009F471
:1005280051E0513108F050E1E0E0EE83EF83E887D5
:10053800E987E52F0E949D06FF27662777270E94F7
:10054800890790F4EE81FF81AC85BD85EA0FFB1F1A
:10055800FF93EF93A9E0F7DEAF91BF91EC930E9470
:10056800A2060E94A706E5CF01C013E0E12F0E9472
:10057800950762960895BA93AA9324970E949007C4
:1005880030E0EDE00E947F06A885B985E3E9EC93A9
:100598001196E0E2EC93ECE00E948A06E2E0EA932E
:1005A800EC85FD85FA93EA93DE011A9604DF1E2F87
:1005B800113069F400E0043028F40E94B9063E279F
:1005C8000F5FF9CF0E94B906E31709F013E0E12F96
:1005D8000E9497072A9608950E94C006AA81A12B17
:1005E800A7DE18810C944F040E94C006EA81E095AA
:1005F800E123AE2F9DDE18810C944F04BA93AA9381
:100608001A930A93E5E0EA93A4E0EEDFEAE0EA93BE
:10061800A0E8E2DF10E0EC811E1760F4E9E0EA935D
:10062800E12FF0E0AE81BF81AE0FBF1FAC9180DE3D
:100638001F5FF1CFE1E0EA93A3E07ADE1FEFA5E0C8
:1006480082DE0E2F1150103011F002FF01C001C0E0
:10065800F6CFA2E278DEAA81BB81EC93A1E273DE39
:10066800AA81BB811196EC93198108812796089578
:1006780028971A93E0E5E983E0E0EA83FE013196E2
:10068800FA93EA93E2E0EA93DE011696B7DFE8E030
:10069800EA93A8E0A9DFECE0EA93FE013296FA9328
:1006A800EA93E4E0EA93FE013596FA93EA93DE01D1
:1006B8001B9681DE1E2FE12F188129960895A7E346
:1006C80042DE08950E946D06E6E2EA93DE01129684
:1006D80050DE1E2F113071F4E0E0F981DF01EA816C
:1006E800F0E0EA0FFB1FA989BA89ED93FC93E1E0DA
:1006F8001881BDC0E0E01881BAC00E946D060A9357
:10070800EF89EA83EE89EB8300E0063058F4E02FA6
:10071800F0E032960E94C906AC89BD890E94D106D4
:100728000F5FF3CF00E0043058F4E02FF0E0389684
:100738000E94C906AA89BB890E94D1060F5FF3CF20
:10074800EEE0EA93FE013396FA93EA93ECE0EA933B
:10075800FE013696FA93EA93DE0154962CDE1E2F9C
:10076800A8E0F1DD0E2F113011F403FD01C013E0F4
:10077800E12F1981088168960895BA93AA9324975E
:100788001A93AD81BE81E0E3EC93EF81AD81BE8128
:100798001196EC93ED81FE81FA93EA93E2E0EA93F5
:1007A800A885B98512962ADF0E948306E4E00E9494
:1007B8008A060E94900661F4A981BA818B819C8186
:1007C800A039E0E0BE07E0E08E07E0E09E0709F010
:1007D80013E0E12F188128960895BA93AA932D97CC
:1007E8000E949007E3E9EC83E0E7ED8310E0153021
:1007F80080F4E12FF0E03296DE011496EA0FFB1F39
:100808000F01E12FF0E0A989BA890E94D1061F5F84
:10081800EECFFE013496FA93EA93E7E0EA93DE011D
:100828001E96ECDEECE0EA93FE013596FA93EA9325
:10083800E9E0EA93FE013896FA93EA93DE015396CB
:10084800BADD0E2F013061F4AD85BE858F8598899C
:10085800A831E0E0BE07E0E08E07E0E09E0709F07F
:1008680002C03C8101C030E0E32F0E9497076396E5
:100878000895AA935D9BFECFE881ECB9219608956F
:10088800BA93AA93AA81F5DFA881B981ED91FD9168
:100898003196FE93EE9323960895BA93AA932C97D4
:1008A8000E948E0710E00E947206E88DF98D31963D
:1008B800E88FF98F3197E4912E2FE03011F40C94E2
:1008C8000E06E12FE03039F4253211F411E002C0B0
:1008D8000E94D7069EC1E130C1F4253219F40E9466
:1008E800D70696C112E0E0E0E98B00E02D3211F462
:1008F80001E08FC12B3219F4EBE2E98B8AC1203277
:1009080019F4E0E2E98B85C102C0E23039F450E025
:1009180013E0203311F400687CC102C0E33091F485
:10092800203310F02A3308F007C0AAE05A9F502D50
:10093800E22FE0535E0F6DC140E02E3211F414E057
:1009480068C10EC0E43091F4203310F02A3308F067
:1009580007C0AAE04A9F402DE22FE0534E0F59C12D
:100968002C3619F4026015E054C104C0E53011F0CA
:100978000C940D06E22FE33649F40E94DE06EE8958
:10098800FF89A481AA930E94E40642C1E33741F497
:100998000E94DE060E94EA060E944D061E2F0AC02B
:1009A800E037A1F40E94DE060E94EA060E9459067A
:1009B8001E2F08600F77403011F0411708F001C072
:1009C800142F40E0E0E0E88B30E078C0E43611F026
:1009D800E93611F4046002C0E537A1F4EAE0E88BD7
:1009E80001FF08C0E0E0FAEC6AE97BE30E94F40644
:1009F8001AE023C0E0E1F7E260E070E00E94F4064C
:100A080015E01BC0E83511F4086004C0E83711F0A0
:100A18000C940C06E0E1E88B01FF08C0E0E0F0E090
:100A280060E070E10E94F40618E007C0E0E0F0E141
:100A380060E070E00E94F40614E0403011F00F7797
:100A480001C041E001FF08C00E94DE06AE89BF89EF
:100A580014960E946F0715C002FF0AC00E94DE06A6
:100A6800AE89BF8914960E946B070E941D0709C0B2
:100A78000E94DE06AE89BF8914960E946B0766271E
:100A88007727EC87FD876E877F8702FF16C0AF85C3
:100A9800AA2362F4EC85FD856E857F850E94150783
:100AA800EC87FD876E877F87EDE2E98BE989E03087
:100AB80019F01F5F4F5F01C00B7F342F00FD14C07A
:100AC800151710F4351708F00FC007FF08C002FF0C
:100AD80004C00B7F2989115001C020E301C020E226
:100AE8000E94D7065150ECCF1417B0F4006102FFF2
:100AF8000AC00B7FE989EA930E94E406503009F0A6
:100B0800515011504150E0E3EA930E94E4065030FE
:100B180009F051504150E8CF312FE889E030B9F45D
:100B28003030A1F003FF06C0EE81FF812591EE83EE
:100B3800FF8305C0AE81BF812D91AE83BF830E9424
:100B4800D706503009F051503150EACF57C00E94B3
:100B5800F9060E9442072E2F2A3030F003FF02C008
:100B6800295C01C0295A01C0205D04FD25C021333C
:100B780060F4A885B9858A859B85A130E0E0BE0729
:100B8800E0E08E07E0E09E0709F40BC0431740F44D
:100B9800531710F000FF01C014C020E207FF0CC07B
:100BA80020E3006102FF08C00B7FE989EA930E94F5
:100BB800E406503009F051500E94D706503009F031
:100BC800515031500E94F9060E946707EC87FD8753
:100BD8006E877F87E889A885B9858A859B85FF27E1
:100BE800662777270E9442070E94F406E885F98560
:100BF8006A857B850E947F0709F0A9CF00FF08C09E
:100C0800503031F05150E0E2EA930E94E406F8CF08
:100C180010E04BCEAA89BB890E946B070E949507FA
:100C28006A960895FF92F82E26971A930A93DE0182
:100C380014960E940C078D01E0E0EC83ED83EE83AF
:100C4800EF83DE0118960E940C070E946B07FA9347
:100C5800EA931A930A93E4E4F4E0FA93EA93DE0140
:100C680018961BDE198108812896FF900895BA937B
:100C7800AA9399818881009641F0BD81AC81FB815E
:100C8800EA8161916D930197E1F7FD81EC812696E8
:100C98000895BA93AA93A991B991EE27FF276D9168
:100CA800662311F03196FBCF0895BA93AA93AA2729
:100CB800BB27E991F9910590002011F01196FBCF1F
:100CC800FD010895FA93EA9380E00E9416062296A1
:100CD8000895BA93AA9360971A930895AA89BB892D
:100CE800E0E0F0E0ED93FC930895FF27662777276F
:100CF8000E947A070895EA93A0E00C949C01ECE026
:100D0800EA93EE81FF81FA93EA930895EA93E985DD
:100D1800FA85FA93EA930895DE0117960E94DF0197
:100D28001E2F11300895EA93E52FE068AE2F0C943A
:100D38009C01AE81BF81888599850895EE81FF81E8
:100D4800688579850895EF5FFF4F6F4F7F4FEE837A
:100D5800FF836887798708950E941D07A8E0B0E09F
:100D680080E090E00E9422070895A885B985EE27C3
:100D7800A00FBE1FEC910895AA931A93AA810E940E
:100D8800A7011E2FEA81EA930895DE011296EA0F61
:100D9800FB1F0F01E02FF0E00895AE0FBF1FEC918D
:100DA800D001EC9308952A93AB89BC89ED89FE891B
:100DB80009950895EE89FF893497EE8BFF8B089586
:100DC800AB89BC89ED89FE8909950895AE89BF89EB
:100DD80014960E946B07EE83FF83AE81BF8108954E
:100DE800E887F9876A877B870895E885F9856A85A2
:100DF8007B85AC85BD858E859F850895109639F0D5
:100E080088EB9BE00197F1F7A8951197C9F708952A
:100E18000024AF0DB01D0895EA0FFB1F681F791F4E
:100E28000895F09560957095E195FF4F6F4F7F4F4E
:100E380008956F2F660F660B762F08957A9F702D91
:100E48006B9F700DF89F700DE99F700D6A9F602D64
:100E5800710DFB9F600D711DE89F600D711D882746
:100E6800FA9FF02D610D781FEB9FF00D611D781F23
:100E7800EA9FE02DF10D681F781F08953F934F9367
:100E88005F93002411244427552730E2AA0FBB1F83
:100E9800881F991F001C111C441F551F0E1A1F0A7A
:100EA800460B570B28F40E0E1F1E461F571F01C076
:100EB800A1603A9559F7FD01BC01D001CA015F91C3
:100EC8004F913F910895DADFFD01BC010895ED913E
:100ED800FC9111970895ED91FD916D917C91139777
:100EE8000895ED93FD936D937C9308957A936A9397
:100EF800FA93EA930895309760407040089500246B
:100F08000A160B06080609060895AE17BF078607D6
:100F1800970708955A934A933A932A931A930A93F0
:100F280008955D814C813B812A811981088108954A
:00000001FF
