:100000000C9450000C9465000C9465000C946500F1
:100010000C9465000C9465000C9465000C946500CC
:100020000C9465000C9465000C9465000C946500BC
:100030000C9465000C9465000C9465000C946500AC
:100040000C9465000C9465000C9465000C9465009C
:100050000C94650048454C4C4F20574F524C44007F
:10006000001F000000001F00001F101010101F00D4
:10007000001F181818181F00001F1C1C1C1C1F0034
:10008000001F1E1E1E1E1F00001F1F1F1F1F1F0000
:1000900003070F1F0F070300181C1E1F1E1C18004C
:1000A00011241FBECFE5D8E0DEBFCDBF10E0A0E633
:1000B000B0E0E4ECF4E002C005900D92A436B10784
:1000C000D9F70E9467000C9460020C940000CF9353
:1000D000DF9300D000D000D0CDB7DEB70E94610121
:1000E0000E9413010E94BA010E94160140E060E0E4
:1000F00084E590E00E94A2011E8280E090E09E01D3
:100100002F5F3F4F69015C013FEFA31AB30A4AE03A
:10011000B6010E94360261E080E00E941901F601FA
:1001200001900020E9F73197EC19FD096E2FC60107
:100130000E94F60063E080E690E00E94F60084E111
:10014000E82E0FEF2B2D40E062E080E00E94BD0121
:10015000C501D9CFC29A84E08A95F1F7C298089573
:100160008FE087BB88B38A7F88BB88B3826F88BBE8
:1001700084E08A95F1F7C29A94E09A95F1F786B3F4
:10018000C29894E09A95F1F7C29A94E09A95F1F7A3
:10019000C29894E09A95F1F787FDEDCF18BA8FEFEA
:1001A00087BB0895CF93C82F0E94B0008C2F807F0B
:1001B00088BB0E94AA0020E1C29FC001112488BB15
:1001C000CF910C94AA00CF93C82F0E94B0009C2F0F
:1001D000907F916098BB0E94AA0020E1C29FC0015D
:1001E0001124816088BBCF910C94AA00EF92FF92FA
:1001F0001F93CF93DF931F92CDB7DEB7182F7C01EB
:100200008E2D811B861740F4F70181917F01698350
:100210000E94E3006981F4CF0F90DF91CF911F918D
:10022000FF90EF90089581E00C94D20082E00C944E
:10023000D200623031F0633031F0613029F4805CFB
:1002400003C08C5E01C08C5A80680C94D200EF927F
:10025000FF920F931F93CF93DF938C0188E0689FE9
:10026000B0011124862F8064E82EC0E0D0E0F801B0
:10027000EC0FFD1FF4908C2F8E0D0E94D2008F2D5D
:100280000E94E3002196C830D10589F7DF91CF9114
:100290001F910F91FF90EF9008951F93CF93DF93DD
:1002A000C0E6D0E060E011E0160FCE010E94270109
:1002B0002896163011F0612FF6CFDF91CF911F9164
:1002C00008952FEF8FEA91E0215080409040E1F7B0
:1002D00000C000008FEF87BB80E388BB0E94AA00AC
:1002E0008FEF9BE60197F1F700C0000080E388BB29
:1002F0000E94AA008FEF95E30197F1F700C000007C
:1003000080E388BB0E94AA008FEF95E30197F1F785
:1003100000C0000080E288BB0E94AA008FEF95E336
:100320000197F1F700C0000088E20E94D2008CE043
:100330000E94D20086E00E94D20080E80E94D20093
:100340000C944D011F93CF93DF93EC01862F642F04
:100350000E94190110E0FE01E10FF11D8491882334
:1003600029F084910E94E3001F5FF5CFDF91CF91C8
:100370001F9108958CE00C94D200AF92BF92DF924F
:10038000EF92FF920F931F93CF93DF931F92CDB7FE
:10039000DEB7F42E29830E94190186E0E89EF00161
:1003A000112429812E9FC0012F9F900D1124602FB1
:1003B00070E00E9422025B01CB0166E070E00E94C7
:1003C0000E02D82E1FEF1E0D00E01F3FE1F0FF20B0
:1003D00011F0212F01C0202FA6E02A9F90011124A7
:1003E000B9016B5F7F4FA616B70628F4A216B306B5
:1003F00020F480E003C085E001C08D2D0E94E30061
:100400000F5F1150E2CF0F90DF91CF911F910F91AD
:10041000FF90EF90DF90BF90AF900895AA1BBB1B99
:1004200051E107C0AA1FBB1FA617B70710F0A61BF4
:10043000B70B881F991F5A95A9F780959095BC0115
:10044000CD01089597FB072E16F4009407D077FD91
:1004500009D00E940E0207FC05D03EF490958195CC
:100460009F4F0895709561957F4F0895BB27FB01BD
:100470005527AA27880F991FAA1FA41710F0A41B9D
:1004800083955051B9F7A05DAA3308F0A95DA193F7
:10049000009779F7B111B1931192CB010C945002EE
:1004A000DC01FC01672F71917723E1F7329704C0DB
:1004B0007C916D9370836291AE17BF07C8F3089566
:0404C000F894FFCFDE
:0404C40020202000D4
:00000001FF
