S01300006D792D6C69622D746573742E73726563DA
S11300000C94CD000C94EA000C94EA000C94EA00E1
S11300100C94EA000C94EA000C94EA000C94EA00B4
S11300200C94EA000C94EA000C94EA000C94EA00A4
S11300300C94EA000C94FB060C9424070C94EA003C
S11300400C94EA000C94EA000C94EA000C94EA0084
S11300500C94EA0041542B48545450414354494FA2
S11300604E3D300D0041542B4854545041435449A3
S11300704F4E3D310D0041542B4854545050415281
S1130080413D22434F4E54454E54222C2261707000
S11300906C69636174696F6E2F782D7777772D663D
S11300A06F726D2D75726C656E636F646564220D7D
S11300B00041542B48545450504152413D2243492D
S11300C044222C310D0041542B48545450494E497C
S11300D0540D0041542B485454505445524D0D0076
S11300E041542B53415042523D312C310D00415467
S11300F02B53415042523D302C310D0041542B536F
S1130100415042523D322C310D0041542B434C4955
S1130110503D310D0041542B43504D533D22534D1E
S1130120222C22534D222C22534D220D0041542BBC
S1130130434D47463D310D00415445300D00415477
S11301400D0041540D0041542B435245473F0D00CF
S113015041542B435245473F0D00001F000000004F
S11301601F00001F101010101F00001F181818186F
S11301701F00001F1C1C1C1C1F00001F1E1E1E1E17
S11301801F00001F1F1F1F1F1F0003070F1F0F0744
S11301900300181C1E1F1E1C180011241FBECFE5CF
S11301A0D8E0DEBFCDBF11E0A0E6B0E0E4E0F9E1C5
S11301B002C005900D92A63FB107D9F722E0A6EF41
S11301C0B1E001C01D92AF3BB207E1F70E94EC0021
S11301D00C94800C0C940000CF93DF93CDB7DEB762
S11301E0C154D1090FB6F894DEBF0FBECDBF1ABA01
S11301F08FEF8BBB0E94B7060E9469060E94F80627
S11302000E946C0680E096E90E94C901789460E03F
S113021080E00E946F0681E00E94A1021F928F93EA
S113022084E790E09F938F9386E690E09F938F936B
S11302300E9466092FEF8FEB91E22150804090409D
S1130240E1F700C000000F900F900F900F900F90F7
S11302500F9080E9A82E80E0B82E96E6E92E90E073
S1130260F92E2CEC822E20E0922E36EDC32E30E0B7
S1130270D32EC89924C02FEF8FE593E021508040FE
S11302809040E1F700C00000C89BFECF0E946906C1
S11302900E946C0645E850E0BA0187E890E00E94AD
S11302A05A031F928F93BF92AF92FF92EF920E94D4
S11302B066090F900F900F900F900F900F90C999AF
S11302C040C02FEF8FE593E0215080409040E1F74C
S11302D000C00000C99BFECF8E010F5F1F4F20E4BA
S11302E04FE950E063EA70E081E00E945A042296EC
S11302F08FAF22970E9469060E946C061F92229675
S11303008FAD22978F939F928F92FF92EF920E94CC
S1130310660961E080E00E946F0666E670E0C8014D
S11303200E9478092FEF8FEB98EA2150804090408B
S1130330E1F700C000000F900F900F900F900F9006
S11303400F90CA9996CF2FEF8FE593E0215080400C
S11303509040E1F700C00000CA9BFECF0E94220338
S113036022968FAF22970E9469060E946C061F9204
S113037022968FAD22978F93DF92CF92FF92EF92C6
S11303800E9466090F900F900F900F900F900F909E
S113039070CF9C0140E050E084E0220F331F441FE3
S11303A0551F8A95D1F760E070EC88EA90E00E94CE
S11303B0A407C90101970C9449070E945D078115A0
S11303C09140D9F708952F923F924F925F926F9286
S11303D07F928F929F92AF92BF92CF92DF92EF92D1
S11303E0FF920F931F93CF93DF93F82EEB013A0103
S11303F04801590161E070E080E490E00E94C60782
S11304008C01009709F45CC080E4F80111928A958C
S1130410E9F7209751F00E94DD01CE01FF2019F089
S11304200E94950702C00E948907E801F12C212C43
S1130430312C21010E945D078115E1E09E0771F4D2
S1130440281439044A045B0431F1FFEF2F1A3F0AE0
S11304504F0A5F0A24E02A95F1F7ECCF28143904F7
S11304604A045B04C0F48993F3946114710431F079
S1130470B301C8010E944409892B59F466EE70E067
S1130480C8010E944409892B31F4FFE3FF12CFCF46
S113049002C0C1E001C0C0E0EE2069F0C114D10483
S11304A051F0FE1440F4CC2331F04F2D50E0B8014C
S11304B0C6010E943409C8010E947A088C2F01C029
S11304C080E0DF91CF911F910F91FF90EF90DF902B
S11304D0CF90BF90AF909F908F907F906F905F90E0
S11304E04F903F902F900895CF92DF92EF920F9309
S11304F01F93C12CD12CE12C00E41BE42CE430E04C
S11305004CEE50E060E571E081E00E94E30181116E
S113051011C000E41BE42CE430E047EF50E066E453
S113052071E081E00E94E30191E0811101C090E05B
S1130530892F01C081E01F910F91EF90DF90CF9040
S11305400895CF92DF92EF920F931F93882309F1BE
S1130550C12CD12CE12C00E211EA27E030E043EF7A
S113056051E062E471E081E00E94E301882381F3B9
S1130570C12CD12CE12C00E211EA27E030E043EF5A
S113058051E068E371E081E00E94E301882389F08F
S113059012C0C12CD12CE12C00E211EA27E030E09A
S11305A043EF51E06EE371E081E00E94E3018111C9
S11305B0DFCF80E028C0C12CD12CE12C00E211EA6D
S11305C027E030E043EF51E06DE271E081E00E940A
S11305D0E301882371F300E211EA27E030E043EFFE
S11305E051E065E171E081E00E94E301882309F3B1
S11305F000E211EA27E030E043EF51E06AE071E005
S113060081E00E94E3011F910F91EF90DF90CF9062
S11306100895CF92DF92EF920F931F93C12CD12CA8
S1130620E12C00E211EA27E030E04AE151E06CEF0E
S113063070E081E00E94E3011F910F91EF90DF9041
S1130640CF900895CF92DF92EF920F931F930E9461
S11306500903882379F0C12CD12CE12C00E41BE49C
S11306602CE430E043EF51E06EEE70E081E00E9454
S1130670E30101C081E01F910F91EF90DF90CF90D3
S11306800895CF92DF92EF920F931F93C12CD12C38
S1130690E12C00E011EE25EF35E043EF51E060EE90
S11306A070E081E00E94E3011F910F91EF90DF90D1
S11306B0CF9008954F925F926F927F928F929F9204
S11306C0AF92BF92CF92DF92EF92FF920F931F935C
S11306D0CF93DF93582E492E762E672E942E852E97
S11306E061E070E083E290E00E94C607EC010097AD
S11306F009F4B5C023E2F22EFC012F2D11922A95A4
S1130700E9F70E947402882309F4A0C00E94090337
S11307108111A0C09EE1A92E91E0B92EBF92AF92A3
S11307202CE231E03F932F931F92FF92DF93CF93FC
S11307300E94A109C12CD12CE12C00E412E42FE089
S113074030E043EF51E0BE0180E00E94E301EDB7E9
S1130750FEB738960FB6F894FEBF0FBEEDBF8823E0
S113076009F474C04F925F92BF92AF9280E491E01B
S11307709F938F931F92FF92DF93CF930E94A109BF
S1130780C12CD12CE12C00E412E42FE030E043EF43
S113079051E0BE0180E00E94E301EDB7FEB73A9656
S11307A00FB6F894FEBF0FBEEDBF882309F44EC008
S11307B06F927F92BF92AF928EE491E09F938F935A
S11307C01F92FF92DF93CF930E94A109C12CD12CD9
S11307D0E12C00E412E42FE030E043EF51E0BE01ED
S11307E080E00E94E301EDB7FEB73A960FB6F894A5
S11307F0FEBF0FBEEDBF882349F18F929F92BF9237
S1130800AF928DE591E09F938F931F92FF92DF93B8
S1130810CF930E94A109C12CD12CE12C00E412E455
S11308202FE030E043EF51E0BE0180E00E94E3019D
S1130830EDB7FEB73A960FB6F894FEBF0FBEEDBF04
S1130840882321F00E944103811104C0CE010E943B
S11308507A0805C0CE010E947A0881E001C080E0D8
S1130860DF91CF911F910F91FF90EF90DF90CF9088
S1130870BF90AF909F908F907F906F905F904F90BC
S11308800895CF92DF92EF920F931F93C12CD12C36
S1130890E12C00E41BE42CE430E043EF51E063ED91
S11308A070E081E00E94E3011F910F91EF90DF90CF
S11308B0CF9008953F924F925F926F927F928F9262
S11308C09F92AF92BF92CF92DF92EF92FF920F93DB
S11308D01F93CF93DF9300D000D000D0CDB7DEB705
S11308E0582E462E372EF42E852E922E380161E096
S11308F070E084E690E00E94C6075C01009709F46A
S11309007EC10115110539F0492D50E060E070E019
S1130910C8010E943D090E940903882309F4C2C04A
S11309200E9441042FEF3FE583E021503040804096
S1130930E1F700C00000C12CD12CE12C00E41BE441
S11309402CE430E043EF51E066EC70E081E00E947B
S1130950E301882309F4A6C0C12CD12CE12C00E4C6
S11309601BE42CE430E043EF51E061EB70E081E004
S11309700E94E301882309F493C044E6F501242F7F
S113098011922A95E9F7552089F03F924F928FE80A
S113099091E09F938F9382EA91E09F938F931F92AC
S11309A04F93BF92AF920E94A10912C08F92FF92FF
S11309B03F924F928FE891E09F938F932AEA31E020
S11309C03F932F931F924F93BF92AF920E94A1091E
S11309D00FB6F894DEBF0FBECDBFC12CD12CE12CD5
S11309E000E41BE42CE430E043EF51E0B50180E087
S11309F00E94E301882309F453C0552009F456C02A
S1130A00C12CD12CE12C00E41BE42CE430E043EFB6
S1130A1051E066E770E081E00E94E301882309F475
S1130A203FC024E6F501322F11923A95E9F7AF2D34
S1130A30B82DFD0101900020E9F73197EA1BFB0B6B
S1130A40FF93EF9385EB91E09F938F931F922F93E6
S1130A50BF92AF920E94A109C12CD12CE12C00E0DD
S1130A601DE221E331E04BEC51E0B50180E00E944E
S1130A70E3010FB6F894DEBF0FBECDBF882381F02B
S1130A80C12CD12CE12C00E41BE42CE430E043EF36
S1130A9051E06F2D782D80E00E94E30181110BC09D
S1130AA00E944104C5010E947A08A9C04DE751E0A3
S1130AB064E570E004C04BE651E065E670E0C12CEB
S1130AC0D12CE12C00E01DE221E331E081E00E9421
S1130AD0E301811102C0F12C8BC084E6F50111926F
S1130AE08A95E9F7650154E6E52E00E412E42FE067
S1130AF030E04EE351E060E070E080E00E94E3010A
S1130B00F82E882341F344E650E06DE070E0C5011F
S1130B100E942709AC010097A1F08E010F5F1F4FBF
S1130B2086E0F80111928A95E9F7B5016F5F7F4F6E
S1130B30461B570BC8010E943409C8010E940909C9
S1130B4002C080E090E0292D30E04C0128173907DD
S1130B5008F449018114910409F44AC044E6F42ECE
S1130B60F5012F2D11922A95E9F79F928F9284ED2A
S1130B7091E09F938F931F92FF92BF92AF920E9436
S1130B80A109C12CD12CE12C00E41BE42CE430E0BD
S1130B9046EE51E0B50180E00E94E3010FB6F894FF
S1130BA0DEBF0FBECDBF882309F495CFF5011192A6
S1130BB0FA94E9F7650134E6E32E00E412E42FE049
S1130BC030E041EF51E060E070E080E00E94E3013A
S1130BD0F82E882369F0A4016AE070E0C5010E9440
S1130BE02709BC016F5F7F4FA401C3010E94340930
S1130BF00E944104C5010E947A088F2D01C080E043
S1130C0026960FB6F894DEBF0FBECDBFDF91CF910D
S1130C101F910F91FF90EF90DF90CF90BF90AF9016
S1130C209F908F907F906F905F904F903F9008952A
S1130C30C29A84E08A95F1F7C29808958FE087BB41
S1130C4088B38A7F88BB88B3826F88BB84E08A9527
S1130C50F1F7C29A94E09A95F1F786B3C29894E0BA
S1130C609A95F1F7C29A94E09A95F1F7C29894E0B4
S1130C709A95F1F787FDEDCF18BA8FEF87BB0895EA
S1130C80CF93C82F0E941E068C2F807F88BB0E94A2
S1130C90180620E1C29FC001112488BBCF910C9497
S1130CA01806CF93C82F0E941E069C2F907F916038
S1130CB098BB0E94180620E1C29FC00111248160E4
S1130CC088BBCF910C9418060E94510680E090E0F6
S1130CD0089581E00C94400682E00C944006623052
S1130CE031F0633031F0613029F4805C03C08C5EF4
S1130CF001C08C5A80680C944006EF92FF920F93C7
S1130D001F93CF93DF938C0188E0689FB001112477
S1130D10862F8064E82EC0E0D0E0F801EC0FFD1FC0
S1130D20F4908C2F8E0D0E9440068F2D0E94510648
S1130D302196C830D10589F7DF91CF911F910F918A
S1130D40FF90EF9008951F93CF93DF93CAE5D1E00E
S1130D5060E011E0160FCE010E947D062896163041
S1130D6011F0612FF6CFDF91CF911F9108952FEFEE
S1130D708FEA91E0215080409040E1F700C00000EC
S1130D808FEF87BB80E388BB0E9418068FEF9BE63A
S1130D900197F1F700C0000080E388BB0E941806A9
S1130DA08FEF95E30197F1F700C0000080E388BB63
S1130DB00E9418068FEF95E30197F1F700C0000039
S1130DC080E288BB0E9418068FEF95E30197F1F744
S1130DD000C0000088E20E9440068CE00E944006A9
S1130DE086E00E94400680E80E9440060C94A30618
S1130DF08CE00C9440061F920F920FB60F921124B0
S1130E002F938F939F93EF93FF938BB19CB1887132
S1130E10E091F801EF5FEF772091F701E21739F0E5
S1130E20E093F801F0E0E550FE4F908301C082E0CA
S1130E308093F601FF91EF919F918F912F910F90E5
S1130E400FBE0F901F9018951F920F920FB60F921E
S1130E5011248F939F93EF93FF939091FA018091C4
S1130E60F901981761F0E091F901EF5FEF73E093F6
S1130E70F901F0E0E558FD4F80818CB901C0559827
S1130E80FF91EF919F918F910F900FBE0F901F9044
S1130E9018951092FA011092F9011092F80110922B
S1130EA0F70197FF03C022E02BB99F7790BD89B962
S1130EB088E98AB986E880BD08959091F801809107
S1130EC0F701981791F0E091F701EF5FEF77E09366
S1130ED0F701F0E0E550FE4F20818091F60190E0AB
S1130EE0982F8827820F911D089580E091E008953E
S1130EF09091FA019F5F9F732091F9019217E1F39A
S1130F00E92FF0E0E558FD4F80839093FA01559A5C
S1130F100895CF93DF93EC018991882319F00E94FF
S1130F207807FACFDF91CF910895CF93DF93FC0137
S1130F308491EF012196882321F00E947807FE0115
S1130F40F7CFDF91CF910895A1E21A2EAA1BBB1B04
S1130F50FD010DC0AA1FBB1FEE1FFF1FA217B30781
S1130F60E407F50720F0A21BB30BE40BF50B661F97
S1130F70771F881F991F1A9469F76095709580955B
S1130F8090959B01AC01BD01CF0108950F931F9370
S1130F90CF93DF93869F8001879F100D969F100D3E
S1130FA01124C8010E94E207EC01009729F0A8016E
S1130FB060E070E00E943D09CE01DF91CF911F9166
S1130FC00F910895CF93DF938230910510F482E05E
S1130FD090E0E091BD02F091BE0220E030E0A0E09C
S1130FE0B0E0309739F14081518148175907B8F082
S1130FF04817590771F482819381109729F0139649
S11310009C938E9312972CC09093BE028093BD0242
S113101027C02115310531F04217530718F0A901F3
S1131020DB0101C0EF019A01BD01DF010280F38100
S1131030E02DD7CF21153105F9F0281B390B2430C9
S1131040310580F48A819B816115710521F0FB01D2
S11310509383828304C09093BE028093BD02FE01F9
S1131060329644C0FE01E20FF31F81939193225004
S11310703109398328833AC02091BB023091BC02E4
S1131080232B41F420916200309163003093BC0221
S11310902093BB022091600030916100211531053D
S11310A041F42DB73EB74091640050916500241B74
S11310B0350BE091BB02F091BC02E217F307A0F4F8
S11310C02E1B3F0B2817390778F0AC014E5F5F4F9A
S11310D02417350748F04E0F5F1F5093BC0240930E
S11310E0BB028193919302C0E0E0F0E0CF01DF9175
S11310F0CF910895CF93DF93009709F487C0FC0143
S1131100329713821282C091BD02D091BE02209701
S113111081F420813181280F391F8091BB02909185
S1131120BC028217930779F5F093BC02E093BB02EB
S11311306DC0DE0120E030E0AE17BF0750F4129618
S11311404D915C9113979D014115510509F1DA0107
S1131150F3CFB383A28340815181840F951F8A17F3
S11311609B0771F48D919C911197840F951F0296A2
S11311709183808312968D919C911397938382839C
S11311802115310529F4F093BE02E093BD023EC05F
S1131190D9011396FC93EE9312974D915D91A40F90
S11311A0B51FEA17FB0779F480819181840F951F9D
S11311B00296D90111969C938E9382819381139602
S11311C09C938E931297E0E0F0E08A819B810097D4
S11311D019F0FE01EC01F9CFCE0102962881398184
S11311E0820F931F2091BB023091BC02281739074C
S11311F069F4309729F41092BE021092BD0202C025
S113120013821282D093BC02C093BB02DF91CF91B0
S11312100895FC0188279927E89421912032E9F365
S1131220293010F02E30C8F32B3241F02D3239F42E
S1131230689404C00E945E09820F911D219120537D
S11312402A30C0F31EF4909581959F4F0895FC01B8
S11312504150504030F001900616D1F73197CF013C
S11312600895882799270895FB01DC0102C00190A5
S11312700D9241505040D8F70895DC0101C06D93A0
S113128041505040E0F70895FB0151915523A9F0D6
S1131290BF01DC014D9145174111E1F759F4CD012E
S11312A00190002049F04D9140154111C9F3FB0113
S11312B04111EFCF81E090E0019708957AE0979F84
S11312C0902D879F802D910D11240895A0E0B0E00A
S11312D0ECE6F9E00C94590CAE01475F5F4F6F8167
S11312E078858D819E810E94D109E2E00C94750C71
S11312F0EF92FF920F931F93CF93DF938B01DB0148
S113130013962C9121FF16C0EC01E12CF12C89914C
S1131310882371F0D8011896ED91FC911997B801C2
S11313200995892BA1F3EE24EA94FF24FA94EFCFD4
S1131330C70102C08FEF9FEFCDB7DEB7E6E00C9494
S1131340710CAEE0B0E0E7EAF9E00C94570C0D89BB
S11313501E898F89988D26E02C831A83098397FF31
S113136002C080E090E801979E838D83AE01455EC4
S11313705F4F698D7A8DCE0101960E94D1094D810E
S11313805E8157FD0AC02F813885421753070CF43C
S11313909A01F801E20FF31F10822E96E4E00C94F8
S11313A0730CACE0B0E0E7EDF9E00C94490C7C017F
S11313B06B018A01FC0117821682838181FFBDC102
S11313C0CE0101964C01F7019381F60193FD8591BD
S11313D093FF81916F01882309F4ABC1853239F4FD
S11313E093FD859193FF81916F01853229F4B701B3
S11313F090E00E94B90BE7CF512C312C20E0203231
S1131400A0F48B3269F030F4803259F0833269F4FD
S113141020612CC08D3239F0803339F4216026C02C
S11314202260246023C0286021C027FD27C030ED3E
S1131430380F3A3078F426FF06C0FAE05F9E300D8C
S11314401124532E13C08AE0389E300D1124332EFC
S113145020620CC08E3221F426FD6BC1206406C0CC
S11314608C3611F4206802C0883641F4F60193FDED
S1131470859193FF81916F018111C1CF982F9F7D39
S11314809554933028F40C5F1F4FFFE3F9830DC08C
S1131490833631F0833771F0833509F05BC022C0A5
S11314A0F801808189830E5F1F4F44244394512C9B
S11314B0540115C03801F2E06F0E711CF801A080D0
S11314C0B18026FF03C0652D70E002C06FEF7FEF8F
S11314D0C5012C870E94AE0B2C0183012C852F772C
S11314E0222E17C03801F2E06F0E711CF801A080A3
S11314F0B18026FF03C0652D70E002C06FEF7FEF5F
S1131500C5012C870E94A30B2C012C852068222E58
S1131510830123FC1BC0832D90E048165906B0F4C8
S1131520B70180E290E00E94B90B3A94F4CFF50140
S113153027FC859127FE81915F01B70190E00E940D
S1131540B90B31103A94F1E04F1A51084114510487
S113155071F7E5C0843611F0893639F5F80127FFB3
S113156007C060817181828193810C5F1F4F08C025
S113157060817181882777FD8095982F0E5F1F4FBA
S11315802F76B22E97FF09C090958095709561953E
S11315907F4F8F4F9F4F2068B22E2AE030E0A40186
S11315A00E94EB0BA82EA81844C0853729F42F7E7F
S11315B0B22E2AE030E025C0F22FF97FBF2E8F36FD
S11315C0C1F018F4883579F0B4C0803719F0883741
S11315D021F0AFC02F2F2061B22EB4FE0DC08B2D91
S11315E08460B82E09C024FF0AC09F2F9660B92ECC
S11315F006C028E030E005C020E130E002C020E170
S113160032E0F801B7FE07C0608171818281938165
S11316100C5F1F4F06C06081718180E090E00E5F17
S11316201F4FA4010E94EB0BA82EA818FB2DFF77D7
S1131630BF2EB6FE0BC02B2D2E7FA51450F4B4FE86
S11316400AC0B2FC08C02B2D2E7E05C07A2C2B2D8F
S113165003C07A2C01C0752C24FF0DC0FE01EA0DD5
S1131660F11D8081803311F4297E09C022FF06C058
S11316707394739404C0822F867809F0739423FDC5
S113168013C020FF06C05A2C731418F4530C5718B7
S1131690732C731468F4B70180E290E02C870E94E5
S11316A0B90B73942C85F5CF731410F4371801C05B
S11316B0312C24FF12C0B70180E390E02C870E94F4
S11316C0B90B2C8522FF17C021FF03C088E590E0E9
S11316D002C088E790E0B7010CC0822F867859F0E9
S11316E021FD02C080E201C08BE227FD8DE2B7013B
S11316F090E00E94B90BA51438F4B70180E390E0A0
S11317000E94B90B5A94F7CFAA94F401EA0DF11D83
S11317108081B70190E00E94B90BA110F5CF33206E
S113172009F451CEB70180E290E00E94B90B3A94DB
S1131730F6CFF7018681978102C08FEF9FEF2C9639
S1131740E2E10C94650CFC010590615070400110BD
S1131750D8F7809590958E0F9F1F0895FC016150D6
S1131760704001900110D8F7809590958E0F9F1FBF
S113177008950F931F93CF93DF93182F092FEB0135
S11317808B8181FD03C08FEF9FEF20C082FF10C0CB
S11317904E815F812C813D81421753077CF4E8819F
S11317A0F9819F012F5F3F4F39832883108306C03F
S11317B0E885F985812F0995892B29F72E813F81A9
S11317C02F5F3F4F3F832E83812F902FDF91CF9147
S11317D01F910F910895FA01AA27283051F1203161
S11317E081F1E8946F936E7F6E5F7F4F8F4F9F4FB1
S11317F0AF4FB1E03ED0B4E03CD0670F781F891FF3
S11318009A1FA11D680F791F8A1F911DA11D6A0FC0
S1131810711D811D911DA11D20D009F468943F9173
S11318202AE0269F11243019305D3193DEF6CF0172
S11318300895462F4770405D4193B3E00FD0C9F738
S1131840F6CF462F4F70405D4A3318F0495D31FDA5
S11318504052419302D0A9F7EACFB4E0A6959795F8
S1131860879577956795BA95C9F7009761057105CE
S113187008959B01AC010A2E069457954795379518
S11318802795BA95C9F7620F731F841F951FA01D72
S113189008952F923F924F925F926F927F928F9210
S11318A09F92AF92BF92CF92DF92EF92FF920F93EB
S11318B01F93CF93DF93CDB7DEB7CA1BDB0B0FB6F5
S11318C0F894DEBF0FBECDBF09942A8839884888B2
S11318D05F846E847D848C849B84AA84B984C88448
S11318E0DF80EE80FD800C811B81AA81B981CE0F3F
S11318F0D11D0FB6F894DEBF0FBECDBFED01089524
S1071900F894FFCF85
S11319040000BF0220000000000200000000640682
S1131914000000007365747570206D6F64656D203C
S11319243D202564002000696E7465726E65740040
S11319346F70656E2067707273203D2025640063A8
S11319443D3100687474703A2F2F6578342D7465B2
S113195463682E69642E6F722E69642F73696D39FE
S113196430302F646174612E70687000706F73740A
S1131974203D20256400636C6F7365206770727367
S1131984203D202564004552524F52002B435245BA
S1131994473A20302C31002B435245473A20302C0F
S11319A4350041542B434D47533D222573220D00EA
S11319B43E0041544425733B0D00312C3100415405
S11319C42B53415042523D332C312C002573224376
S11319D44F4E54595045222C2247505253220D0045
S11319E425732241504E222C222573220D00257387
S11319F42255534552222C222573220D002573228D
S1131A04505744222C222573220D002B4854545041
S1131A14414354494F4E3A312C323030002B485410
S1131A245450414354494F4E3A302C3230300041E3
S1131A34542B48545450504152413D2255524C2247
S1131A442C002573222573220D0025732225733F50
S1131A542573220D0041542B48545450444154419D
S1131A643D25642C32303030300D00444F574E4CF9
S1131A744F41440041542B48545450524541443D31
S1131A84302C25640D002B48545450524541443A9B
S1091A94000D0A4F4B0097
S9030000FC
